:107800000853544B3530305F3201E201E1022770FA
:107810000220700001E201E102277002257A0226AF
:1078200026022303062AA5A5A5A5A5023D06022238
:1078300001022101023C0102200B020A000022E0A9
:10784000A0E0B1E001C01D92AA37B207E1F7F894B9
:1078500011248FEF98E09EBF8DBF0C948A3F109249
:10786000800085E0809381008DEE95E890938500FF
:1078700080938400089580917902811102C00C9454
:107880002F3C88E1809360008EE080936000089533
:1078900080917902811102C00C942F3CA895089523
:1078A00010928100E0E6F0E088E180831082089584
:1078B000460F571F6417750709F40895FC012491BA
:1078C000FB012193BF010196F5CFFB01411101C0DE
:1078D00008952191DC012D93CD014150F7CF9C01FA
:1078E0002550310932272327322730935001209326
:1078F0004F019C01235B3E4FEDE4F1E080E0E21795
:10790000F30709F4089591918927F9CF86E08093D0
:10791000C2001092C50080E18093C400E0ECF0E06A
:1079200080818260808388E18093C1000895909176
:10793000C00095FFFCCF8093C60008958EBD0DB4A6
:1079400007FEFDCF8EB5089585E08A95F1F708957D
:1079500020EA3FE0811101C00895F9013197F1F764
:107960008150F8CF0F931F93CF93C82F2A980E946E
:10797000A43C02E211E0C11106C02A9ACF911F91E6
:107980000F910C94A43CF80180810E949E3CF80168
:1079900081938F01C150EFCFCF93DF93C2E2D1E04B
:1079A000888381E00E94B23C8881DF91CF91089565
:1079B000CF93DF93C2E2D1E08883698382E00E94A3
:1079C000B23C8981DF91CF91089528EA209322016A
:1079D000282FA3E2B1E0FC018E2F821B861720F036
:1079E00081E0860F0C94B23C81918D93F5CF1F936B
:1079F000CF93DF93C2E2D1E080E6888382E00E94E9
:107A0000B23C198181E6888381E0810F0E94B23CFB
:107A1000812FDF91CF911F9108951F93CF93DF9313
:107A2000EC011881112369F02196412FBE0182E2F9
:107A300091E00E94653C812F0E94B23CC10FD11D94
:107A4000F0CFDF91CF911F910895462F50E06DE464
:107A500071E00E94583C8DE491E00C940D3D9EE253
:107A600094B994E195B91AB894E09BB990E59CBD9E
:107A700091E09DBD29982A9A0E94A83C6AE284E17F
:107A800098E70E94253D82E00E94A83C8091230156
:107A9000853A29F48CEA80934C01299A08951CBCFC
:107AA00008951092C10080914C018C3A39F42998C4
:107AB0006BE089E098E70E94253D1CBC0E94503C89
:107AC000F0E0E0E009954A9B0895B09BFCCF0E944E
:107AD000513DF9CF0E94633D82EE0E94CC3C60E7AD
:107AE00087E20C94D83CEF92FF920F931F93CF93B1
:107AF000DF93EC0180914C018C3A69F00DE411E0C8
:107B0000C35BDE4F0C171D0751F1F80181918F0106
:107B10000E94973CF7CF0E946A3D8DE4E82E81E0F9
:107B2000F82E8FEF0E94CC3C80FD11C0209779F099
:107B300000E210E0C032D10508F48E01602FC701C9
:107B40000E94E53CE00EF11EC01BD10BEACF0E9463
:107B50006A3D60E087E10E94D83C84FFE2CFDF917C
:107B6000CF911F910F91FF90EF90089580914C015C
:107B70008C3A89F590912101992371F020910001AF
:107B8000E22FF0E0EF5FFE4F80812F5F2093000136
:107B900091509093210108950E94633D8FEF0E94C0
:107BA000CC3C86FF0DC00E94F73C80932101482FFA
:107BB00063E271E081E091E00E94653C1092000177
:107BC00081EE0E94CC3C60E787E20E94D83CD2CF95
:107BD000B0990E94513D8091C00087FFF9CF8091FC
:107BE000C60008950F931F93CF93DF930091520126
:107BF000043109F4DFC008F5063009F465C048F423
:107C0000013009F44FC0033009F459C0C7E0D0E097
:107C100053C0C7E0D0E080E015E0013109F4B0C006
:107C2000033109F463C0003189F70E94503C88E0B9
:107C3000809379020E943B3CE9CF0A3141F010F574
:107C4000063109F405C108F4D9C00831F9F680916C
:107C5000540190915501E1E00A3141F0890FE0E0D3
:107C6000803521F0E2E0803609F4E3E0F0E089E0DD
:107C700080935700E491E093540110925501C9E0BC
:107C8000D0E01AC00D3109F414C1003F09F426C137
:107C90000B3109F0BBCFE0915601F0E0EE0FFF1F72
:107CA00081E2E6CF49E050E064E571E080E098E7EA
:107CB0000E94583CC0E1D0E080E010E061C010922A
:107CC0005401C8E0D0E0F8CF80915501282F30E072
:107CD000322F222780915601820F932F911D880FFA
:107CE000991F90934B0180934A0190CF80914A0154
:107CF00090914B019C012F7733272115310509F015
:107D000001C1109153011111FDC04091540140383F
:107D100009F0FCC043E0FC0140935700E89507B62A
:107D200000FCFDCF4CE551E061E04E5F5F4FFC0190
:107D3000E20FF31FDA0112970D90BC91A02D0D01F7
:107D400060935700E89511242E5F3F4F203831058E
:107D500061F725E0FC0120935700E89527B7122F23
:107D6000117020FDFBCF21E120935700E89580584A
:107D70009F4F90934B0180934A0180E0C7E0D0E091
:107D800080935301CE010E946F3CFE01E35BFE4FE6
:107D90008083CE0101960E94733D812F0E94A83CF2
:107DA000013109F0A0C00E94513DDF91CF911F9198
:107DB0000F910895C09153018C2F90E0982F882740
:107DC000C0915401C80FD92FD11DAE0164E571E0F7
:107DD00080914A0190914B010E94583C80914A0148
:107DE00090914B018C0F9D1F90934B0180934A0102
:107DF000FE01E35BFE4F178228965ECF8091530110
:107E0000811104CF80915401813808F0FFCE815F49
:107E1000ECE5F1E09FE0981708F0F8CEF999FECF75
:107E200020914A0130914B013695279532BD21BDF5
:107E3000219120BDFA9AF99A20914A0130914B0183
:107E40002E5F3F4F30934B0120934A019F5FE3CF5A
:107E5000109153011111A9CFC0915401C13808F0FC
:107E6000A4CFE7E0EC0FA4E5B1E087E08E1740F087
:107E7000F0E0E35BFE4F1082D0E0289680E080CFF8
:107E8000F999FECF20914A0130914B013695279503
:107E900032BD21BDF89A90B59D9320914A01309151
:107EA0004B012E5F3F4F30934B0120934A018F5F70
:107EB000DDCF80915601E0E0803349F4E091580134
:107EC000F0E0EE0FFF1F81E280935700E491E09312
:107ED000570110925801CCE0D0E0EECE1091530142
:107EE000C7E0D0E0CBCF003F09F05FCF80914C01DD
:107EF0008C3A09F05ACF299885E591E00E940D3D12
:107F0000299A53CFC7E0D0E080E8D7CEC7E0D0E0D1
:107F100080E836CF84B714BE982F9870909379027A
:107F20008A7011F080E001C087E60E942F3D0E9418
:107F3000863C0E943B3C9DE4E92E91E0F92ED12C39
:107F4000C12C10E0D0E0C0E008C011E005C0ADE4F5
:107F5000B1E0D12CC12C10E07D010E94B63D082F6C
:107F60000E94483CD7010D931730B0F7E12FF0E0A5
:107F7000E551F04C0C94E53F12E0EECF0B3129F3C4
:107F8000ADE4B1E0E9CF13E0E7CFC0914F01D0E01D
:107F9000DC2FCC27C00FD11D6E0185E0C80ED11C8F
:107FA00014E0DACF15E0D8CF2197B1F616E0D4CFA0
:107FB000C6010E946F3C8013CACF0E94F23DADE41F
:107FC000B1E0D12CC12C10E0C7CFEE0FFF1F059000
:107FD000F491E02D0994BE3FBC3FC33FC53FD23F63
:047FE000D43FD83F73
:040000030000780081
:00000001FF
